:1000000001308A004A290000D8346E106334E13789
:10001000A031E131203161372100C82AD4224324A4
:1000200000002730840083130008031924280230BD
:10003000F800F701F70B1A28F80B19289730F7008A
:10004000F70B2028800B172808002D0EF039F70039
:100050000F30080577048800000008142F28302886
:10006000081008000808F700080E0F39F80008000B
:100070008316081088100811831288100F30831619
:100080000805F038880083120815000008140000E5
:1000900032207808AD000810000008144F283220E4
:1000A0007808AC0008100F3083160805880083120A
:1000B0002D0EF700F030F70577082C04F8007808CB
:1000C000AC00AC1B3E282A1C88102A18881400009B
:1000D0000811000008102B0EAC000F30AC052C08E6
:1000E000AD0025202B080F39AC00AD0025200800FD
:1000F0002830A3000C30A4000130A5000630A60073
:100100000810881008110F308316080588000810A1
:10011000881008110F308312A70011200130A200AF
:100120002208033C031C9C280330AD002520053029
:10013000A7001120A20A90280230AD00252005302A
:10014000A7001120A2012208033C031CB32823307E
:100150002207840083130008A700AA012708AB0028
:100160003820A20AA3288A110A125A29270BB92873
:10017000BC284030A800BD28A80101302602A807ED
:1001800028088038A900AA012908AB0038200800F7
:100190002508073A0319D6280B3A0319DB28063A33
:1001A0000319E328023A0319E928EE280130A600D2
:1001B000A700B620F328AA010130AB003820023096
:1001C000A7001120F3280130A6000230A700B620B6
:1001D000F328AA011030AB003820F3280130AA0020
:1001E0002508AB00382008000B08A2008B138316EB
:1001F00003178C170C140000000083120313A21BBA
:100200008B1703170C087F39031948290313A20021
:1002100003170D080313A30003170F080313A4000B
:100220002208A500C820230803178D000313240803
:1002300003178F0003130B08A5008B1383160317F6
:100240008C170C140000000083120313A51B8B17DE
:1002500003170C0D0E0D7F39031948290313A20053
:1002600003170D080313A30003170F080313A400BB
:100270002208A500C820230803178D0003132408B3
:1002800003178F008D0A03198F0A0313F42803172D
:100290000313080003081F398300FF30A0008316F2
:1002A0001F149F141F159F1107309C008313831286
:1002B000A1017828A01520088316870083128719CA
:1002C00063290130A10020162008831687008312BD
:1002D000071A6C290230A1002108013A0319742978
:1002E000033A031988299C290130A600A700B620EB
:1002F000043003178D0000308F000313F420023008
:10030000A2009630A7001120A20B8129A1019C29EF
:100310000A30A6000230A700B6200D3003178D006A
:1003200000308F000313F4200230A2009630A700A3
:0C0330001120A20B9629A101592963009D
:02400E003A3F37
:00000001FF
;PIC16F877A
;CRC=FFAF  CREATED="28-Jul-20 08:24"
