:1000000001308A008E290000D3327410F630EC3AA9
:100010006500283084008313000803191C2802306F
:10002000F800F701F70B1228F80B11289730F700AA
:10003000F70B1828800B0F2808002E0EF039F70058
:100040000F300805770488000000081427282828A6
:10005000081008000808F700080E0F39F80008001B
:100060008316081088100811831288100F30831629
:100070000805F038880083120815000008140000F5
:100080002A207808AE0008100000081447282A200B
:100090007808AD0008100F30831608058800831219
:1000A0002E0EF700F030F70577082D04F8007808D9
:1000B000AD00AD1B36282B1C88102B1888140000AF
:1000C0000811000008102C0EAD000F30AD052D08F2
:1000D000AE001D202C080F39AD00AE001D20080019
:1000E0002830A4000C30A5000130A6000630A7007F
:1000F0000810881008110F308316080588000810B2
:10010000881008110F308312A80009200130A300C5
:100110002308033C031C94280330AE001D20053047
:10012000A8000920A30A88280230AE001D2005304F
:10013000A8000920A3012308033C031CAB2824309A
:100140002307840083130008A800AB012808AC0033
:100150003020A30A9B288A110A129F29280BB12854
:10016000B4284030A900B528A90101302702A90709
:1001700029088038AA00AB012A08AC00302008000A
:100180002608073A0319CE280B3A0319D328063A52
:100190000319DB28023A0319E128E6280130A700F9
:1001A000A800AE20EB28AB010130AC0030200230BB
:1001B000A8000920EB280130A7000230A800AE20DB
:1001C000EB28AB011030AC003020EB280130AB0045
:1001D0002608AC00302008000B08A3008B13831600
:1001E00003178C170C140000000083120313A31BC9
:1001F0008B1703170C087F39031940290313A30039
:1002000003170D080313A40003170F080313A50019
:100210002308A600C020240803178D000313250817
:1002200003178F0003130B08A6008B138316031705
:100230008C170C140000000083120313A61B8B17ED
:1002400003170C0D0E0D7F39031940290313A3006A
:1002500003170D080313A40003170F080313A500C9
:100260002308A600C020240803178D0003132508C7
:1002700003178F008D0A03198F0A0313EC28031745
:1002800003138A110A12AB292608F8012502031864
:100290004C292508F7005829F7010830A700A50DBB
:1002A000F70D260877020318F700F80DA70B4F2962
:1002B000080078082308A5006430A60044217708C8
:1002C000A30078083030031D6C29A41C7329A419DD
:1002D0007329241A20306F29A41124122414F8073A
:1002E0007808A600C0202308A5000A30A6004421F3
:1002F0007708A30078083030031D8429A4198829C1
:10030000241C8829241A2030F8077808A600C02069
:100310003030A3072308A600C020080003081F39B7
:100320008300FF30A00083161F149F141F159F1118
:1003300007309C0083138312A101A20170280530AD
:10034000A7000130A800AE20043003178D00003054
:100350008F000313EC280830A7000230A800AE205D
:100360002208A3000330A4005921A01520088316F9
:10037000870083128719BE290130A10020162008AA
:10038000831687008312071AC7290230A1002108AB
:10039000013A0319CF29033A0319E829FF29220852
:1003A000C73C031CE8290530A2070830A70002302B
:1003B000A800AE202208A3000330A4005921023077
:1003C000A3009630A8000920A30BE129A101FF2971
:1003D000A2080319FF290130A2020830A700023049
:1003E000A800AE202208A3000330A4005921023047
:1003F000A3009630A8000920A30BF929A101B52973
:02040000630097
:02400E003A3F37
:00000001FF
;PIC16F877A
;CRC=7A25  CREATED="28-Jul-20 09:18"
