:1000000001308A004C290000D732EC31EF36651000
:10001000F43700002A152A152A24552AC521481527
:100020002A152A15000026308400831300080319BE
:1000300026280230F800F701F70B1C28F80B1B28C4
:100040009730F700F70B2228800B192808002C0E98
:10005000F039F7000F300805770488000000081415
:1000600031283228081008000808F700080E0F3958
:10007000F8000800831608108810081183128810F1
:100080000F3083160805F038880083120815000029
:100090000814000034207808AC0008100000081490
:1000A000512834207808AB0008100F30831608055B
:1000B000880083122C0EF700F030F70577082B0428
:1000C000F8007808AB00AB1B4028291C88102918C1
:1000D000881400000811000008102A0EAB000F3031
:1000E000AB052B08AC0027202A080F39AB00AC0069
:1000F000272008002830A2000C30A3000130A40003
:100100000630A5000810881008110F308316080566
:1001100088000810881008110F308312A6001320E1
:100120000130A1002108033C031C9E280330AC00D1
:1001300027200530A6001320A10A92280230AC0027
:1001400027200530A6001320A1012108033C031C31
:10015000B52822302107840083130008A600A901D6
:100160002608AA003A20A10AA5288A110A125929AC
:10017000260BBB28BE284030A700BF28A7010130AE
:100180002502A70727088038A800A9012808AA0087
:100190003A2008002408073A0319D8280B3A031913
:1001A000DD28063A0319E528023A0319EB28F0285E
:1001B0000130A500A600B820F528A9010130AA0049
:1001C0003A200230A6001320F5280130A5000230A5
:1001D000A600B820F528A9011030AA003A20F52879
:1001E0000130A9002408AA003A2008000B08A10049
:1001F0008B13831603178C170C1400000000831256
:100200000313A11B8B1703170C087F3903194A2905
:100210000313A10003170D080313A20003170F080F
:100220000313A3002108A400CA20220803178D008D
:100230000313230803178F0003130B08A4008B1369
:10024000831603178C170C1400000000831203138D
:10025000A41B8B1703170C0D0E0D7F3903194A29A8
:100260000313A10003170D080313A20003170F08BF
:100270000313A3002108A400CA20220803178D003D
:100280000313230803178F008D0A03198F0A031322
:10029000F62803170313080003081F398300831689
:1002A0001F149F141F159F1107309C008313831286
:1002B0007A280130A500A600B820043003178D006D
:1002C00000308F000313F6200330A6001320013006
:1002D000A5000230A600B8200A3003178D000030B8
:1002E0008F000313F6200330A60013207629630045
:02400E003A3F37
:00000001FF
;PIC16F877A
;CRC=2435  CREATED="28-Jul-20 08:00"
