:1000000001308A0092290000C427CE2320244F10FB
:10001000C4224D10C724C12C00002A308400831351
:100020000008031920280230F800F701F70B162802
:10003000F80B15289730F700F70B1C28800B1328B6
:100040000800300EF039F7000F30080577048800FB
:10005000000008142B282C28081008000808F700B6
:10006000080E0F39F80008008316081088100811D0
:10007000831288100F3083160805F0388800831229
:1000800008150000081400002E207808B0000810A1
:10009000000008144B282E207808AF0008100F30FD
:1000A0008316080588008312300EF700F030F7053C
:1000B00077082F04F8007808AF00AF1B3A282D1CF2
:1000C00088102D18881400000811000008102E0E4A
:1000D000AF000F30AF052F08B00021202E080F39D8
:1000E000AF00B000212008002830A6000C30A70087
:1000F0000130A8000630A9000810881008110F3040
:100100008316080588000810881008110F30831224
:10011000AA000D200130A5002508033C031C9828E7
:100120000330B00021200530AA000D20A50A8C283C
:100130000230B00021200530AA000D20A5012508BD
:10014000033C031CAF2826302507840083130008D6
:10015000AA00AD012A08AE003420A50A9F288A1102
:100160000A12A5292A0BB528B8284030AB00B928B7
:10017000AB0101302902AB072B088038AC00AD0180
:100180002C08AE00342008002808073A0319D228AA
:100190000B3A0319D728063A0319DF28023A031944
:1001A000E528EA280130A900AA00B220EF28AD0115
:1001B0000130AE0034200230AA000D20EF280130BB
:1001C000A9000230AA00B220EF28AD011030AE0025
:1001D0003420EF280130AD002808AE00342008009C
:1001E0000B08A5008B13831603178C170C14000043
:1001F000000083120313A51B8B1703170C087F390C
:10020000031944290313A50003170D080313A600BF
:1002100003170F080313A7002508A800C420260809
:1002200003178D000313270803178F0003130B0810
:10023000A8008B13831603178C170C140000000002
:1002400083120313A81B8B1703170C0D0E0D7F3998
:10025000031944290313A50003170D080313A6006F
:1002600003170F080313A7002508A800C4202608B9
:1002700003178D000313270803178F008D0A031936
:100280008F0A0313F028031703138A110A12B029E7
:100290002808F8012702031850292708F7005C29CD
:1002A000F7010830A900A70DF70D280877020318F9
:1002B000F700F80DA90B5329080078082508A700B6
:1002C0006430A80048217708A50078083030031D65
:1002D0007029A61C7729A6197729261A2030732998
:1002E000A61126122614F8077808A800C4202508AD
:1002F000A7000A30A80048217708A5007808303008
:10030000031D8829A6198C29261C8C29261A203021
:10031000F8077808A800C4203030A5072508A800F1
:10032000C420080003081F398300FF30A000831693
:100330001F149F141F159F1107309C0083138312F5
:10034000A101A201A301A40174280130A900AA00FF
:10035000B220043003178D0000308F000313F02803
:100360000430A9000230AA00B2202308A500013001
:10037000A6005D213A30A800C4202208A500013063
:10038000A6005D21A0152008831687008312871917
:10039000CB290130A1002016200883168700831284
:1003A000071AF1290230A1006430AA000D20A40A26
:1003B0002408323C0318F029A201A3010430A9004B
:1003C0000230AA00B2202308A5000130A6005D215A
:1003D0003A30A800C4202208A5000130A6005D2103
:1003E000CB292108013A0319F929033A0319162ADE
:1003F000172A0A30AA000D20A20A2208643C031D15
:10040000032AA201A30A0430A9000230AA00B220E4
:100410002308A5000130A6005D213A30A800C420C1
:100420002208A5000130A6005D21172AA401B029E9
:02043000630067
:02400E003A3F37
:00000001FF
;PIC16F877A
;CRC=21EC  CREATED="28-Jul-20 10:39"
