:1000000001308A00B2290000C3377537F432721DFF
:100010000000293084008313000803191C280230D3
:10002000F800F701F70B1228F80B11289730F700AA
:10003000F70B1828800B0F280800300EF039F70056
:100040000F300805770488000000081427282828A6
:10005000081008000808F700080E0F39F80008001B
:100060008316081088100811831288100F30831629
:100070000805F038880083120815000008140000F5
:100080002A207808B00008100000081447282A2009
:100090007808AF0008100F30831608058800831217
:1000A000300EF700F030F70577082F04F8007808D5
:1000B000AF00AF1B36282D1C88102D1888140000A7
:1000C0000811000008102E0EAF000F30AF052F08EA
:1000D000B0001D202E080F39AF00B0001D20080011
:1000E0002830A3000C30A4000130A5000630A60083
:1000F0000810881008110F308316080588000810B2
:10010000881008110F308312A90009200130A200C5
:100110002208033C031C94280330B0001D20053046
:10012000A9000920A20A88280230B0001D2005304D
:10013000A9000920A2012208033C031CAB2823309C
:100140002207840083130008A700AD012708AE0032
:100150003020A20A9B288A110A12BF292A0BB12833
:10016000B4284030AB00B528AB0101302902AB0701
:100170002B088038AC00AD012C08AE003020080000
:100180002808073A0319CE280B3A0319D328063A50
:100190000319DB28023A0319E128E6280130A900F7
:1001A000AA00AE20EB28AD010130AE0030200230B5
:1001B000A9000920EB280130A9000230AA00AE20D6
:1001C000EB28AD011030AE003020EB280130AD003F
:1001D0002808AE00302008000B08A2008B138316FD
:1001E00003178C170C140000000083120313A21BCA
:1001F0008B1703170C087F39031940290313A2003A
:1002000003170D080313A30003170F080313A4001B
:100210002208A800C020230803178D000313240818
:1002200003178F0003130B08A5008B138316031706
:100230008C170C140000000083120313A51B8B17EE
:1002400003170C0D0E0D7F39031940290313A2006B
:1002500003170D080313A30003170F080313A400CB
:100260002208A800C020230803178D0003132408C8
:1002700003178F008D0A03198F0A0313EC28031745
:1002800003138A110A12CA292908F801280203183F
:100290004C292808F7005829F7010830AA00A80DB2
:1002A000F70D290877020318F700F80DAA0B4F295C
:1002B00008002030231E3030A4002208F700A21FBF
:1002C0006929F709F70A7708A2002D30A400A317BF
:1002D00023142208A8006430A90044217708A20052
:1002E00030307807A5002208A8000A30A900442170
:1002F00030307707A70030307807A6002408F700D1
:100300003030250203198829A314A31B23159C2927
:100310002408A5002030A4003030260203199429B7
:100320002314A31BA3149C29031D2314031D9C2920
:100330002508A6002030A5002319A329A318A62963
:100340002318A929AC292408A800C0202508A80042
:10035000C0202608A800C0202708A800C0208A11B5
:100360000A12DC2903081F39830083161F149F1407
:100370001F159F1107309C008313831270280130D2
:10038000A900AA00AE20043003178D0000308F00B2
:100390000313EC280330A9000920A1012108633CC4
:1003A000031CE5290A30A9000230AA00AE2021086A
:1003B000A2001830A30059290230A2009630A900EB
:0C03C0000920A20BDE29A10ACE2963004F
:02400E003A3F37
:00000001FF
;PIC16F877A
;CRC=F9AB  CREATED="28-Jul-20 08:05"
