:1000000000308A00E0280000FF00030E8301A100F9
:100010000A08A0008A010408A2007708A300780853
:10002000A4007908A5007A08A600831383128C30F7
:100030008400001C1D280C182E2822088400230888
:10004000F7002408F8002508F9002608FA0020081F
:100050008A00210E8300FF0E7F0E09008A110A120A
:1000600068280A108A100A11820703349F34253445
:100070000D349934493441341F34013409343C0877
:10008000F8013B02031847283B08F7005328F70103
:100090000830BD00BB0DF70D3C0877020318F700D0
:1000A000F80DBD0B4A2808003B308400831300087C
:1000B000031967280230F800F701F70B5D28F80BE9
:1000C0005C289730F700F70B6328800B5A2808004C
:1000D0002A08BB000A30BC003F207708A8002A0885
:1000E000BB000A30BC003F207808A90083168801B5
:1000F000FF308312880083168601633083128600E6
:1001000083168811831288110330BB005420831694
:100110008801FF308312880083168601E030831245
:10012000860083160811831208110330BB00542087
:1001300083168801FF308312880029083120BB0014
:100140008316860183123B0886008316881083126B
:1001500088100330BB00542083168801FF308312BF
:10016000880028083120BB008316860183123B08D3
:10017000860083160810831208100330BB00542039
:100180000C108A110A121D28B901B801390837026A
:10019000031CDD28031DD028360838020318DD288B
:1001A000A7018B1BA7178B130130BB005420A71B83
:1001B0008B17B80A0319B90AC6288A110A1221290D
:1001C00003081F398300FF30B40083161F149F14E7
:1001D0001F159F1107309C0083138312AB01013060
:1001E000AC000330AD000730AE000F30AF001F3061
:1001F000B0003F30B1007F30B200FF30B300C030FC
:100200008B0483160C148530831290002A08313C2D
:10021000031C2629B5013508083C031C23292B3073
:100220003507840083130008B6000030B40083163D
:1002300087018312360887000130B7002C30B600E2
:0E024000C428B50A0B290130AA07062963005D
:02400E003A3F37
:00000001FF
;PIC16F877A
;CRC=F7CA  CREATED="11-Aug-20 08:10"
