:1000000001308A008D290000C427CE2320244F0010
:100010002A3084008313000803191B280230F800DB
:10002000F701F70B1128F80B10289730F700F70BA2
:100030001728800B0E280800300EF039F7000F301B
:1000400008057704880000000814262827280810CF
:1000500008000808F700080E0F39F800080083169A
:10006000081088100811831288100F3083160805B5
:10007000F0388800831208150000081400002920B9
:100080007808B000081000000814462829207808D5
:10009000AF0008100F308316080588008312300E59
:1000A000F700F030F70577082F04F8007808AF0064
:1000B000AF1B35282D1C88102D188814000008113E
:1000C000000008102E0EAF000F30AF052F08B00053
:1000D0001C202E080F39AF00B0001C20080028306B
:1000E000A6000C30A7000130A8000630A9000810B7
:1000F000881008110F308316080588000810881032
:1001000008110F308312AA0008200130A50025082D
:10011000033C031C93280330B0001C200530AA00C8
:100120000820A50A87280230B0001C200530AA004C
:100130000820A5012508033C031CAA282630250712
:10014000840083130008AA00AD012A08AE002F2006
:10015000A50A9A288A110A12A0292A0BB028B328C6
:100160004030AB00B428AB0101302902AB072B08AB
:100170008038AC00AD012C08AE002F200800280804
:10018000073A0319CD280B3A0319D228063A031966
:10019000DA28023A0319E028E5280130A900AA006C
:1001A000AD20EA28AD010130AE002F200230AA00B8
:1001B0000820EA280130A9000230AA00AD20EA2870
:1001C000AD011030AE002F20EA280130AD00280824
:1001D000AE002F2008000B08A5008B138316031711
:1001E0008C170C140000000083120313A51B8B173F
:1001F00003170C087F3903193F290313A5000317C0
:100200000D080313A60003170F080313A700250802
:10021000A800BF20260803178D0003132708031723
:100220008F0003130B08A8008B13831603178C177A
:100230000C140000000083120313A81B8B17031774
:100240000C0D0E0D7F3903193F290313A500031769
:100250000D080313A60003170F080313A7002508B2
:10026000A800BF20260803178D00031327080317D3
:100270008F008D0A03198F0A0313EB28031703134A
:100280008A110A12AC292808F801270203184B2901
:100290002708F7005729F7010830A900A70DF70D27
:1002A000280877020318F700F80DA90B4E2908005B
:1002B00078082508A7006430A80043217708A50026
:1002C00078083030031D6B29A61C7229A6197229E3
:1002D000261A20306E29A61126122614F80778084F
:1002E000A800BF202508A7000A30A80043217708EE
:1002F000A50078083030031D8329A6198729261CFC
:100300008729261A2030F8077808A800BF20303047
:10031000A5072508A800BF20080003081F3983008F
:10032000FF30A00083161F149F141F159F11073064
:100330009C0083138312A101A201A301A4016F28D1
:100340000430A9000130AA00AD20043003178D004D
:1003500000308F000313EB28A015200883168700B8
:1003600083128719BA292308173C031CB929A30A49
:10037000BA29A30120162008831687008312071AC2
:10038000C92922083A3C0318C829A30AA201C9298D
:10039000A20A6430AA000820A40A2408583C031DBD
:1003A000D329A401A20A22083C3C031DD929A20199
:1003B000A30A2308183C0319A3010430A900023042
:1003C000AA00AD202308A5000130A60058213A302C
:1003D000A800BF202208A5000130A60058213A300D
:1003E000A800BF202408A5000130A6005821AC2990
:0203F0006300A8
:02400E003A3F37
:00000001FF
;PIC16F877A
;CRC=24F5  CREATED="11-Aug-20 08:20"
