:1000000000308A00B52800000A108A100A11820701
:1000100003349F3425340D349934493441341F342A
:10002000013409342808F801270203181A28270880
:10003000F7002628F7010830A900A70DF70D2808BA
:1000400077020318F700F80DA90B1D2808002630C9
:1000500084008313000803193A280230F800F701DE
:10006000F70B3028F80B2F289730F700F70B3628BE
:10007000800B2D2808002308A7000A30A8001220B2
:100080007708A0002308A7006430A8001220770892
:10009000A7000A30A80012207808A1002308A700B2
:1000A0006430A80012207808A2008316081083127A
:1000B0000810831608118312081183168810831202
:1000C000881422080420A6008316860183122608BD
:1000D00086000A30A600272083160811831208150F
:1000E000831608108312081483160811831208114E
:1000F0008316881083128810831608108312081440
:1001000021080420A6008316860183122608860093
:100110000A30A600272083168810831288148316BD
:10012000081183120815831688108312881083160D
:10013000081083120810831608118312081520086E
:100140000420A600831686018312260886000A3042
:10015000A60027208316081083120814831688101F
:10016000831288148A110A12D42803081F398300C5
:1001700083161F149F141F159F1107309C008313B3
:10018000C03083128B048B1683160108C0390538E2
:1001900081008312A501A401A508031DD828240805
:1001A000013C031CD8283B28A40A0319A50ACC2823
:0801B0000130A307CA28630017
:02400E003A3F37
:00000001FF
;PIC16F877A
;CRC=151C  CREATED="11-Aug-20 07:39"
