:1000000000308A002428000083160108C039013816
:1000100081008312A201A1012208033C031C2328B2
:10002000031D162821081F3C031C232883160108E2
:10003000C039810083120108F93C03181B28A10A6A
:100040000319A20A0C28080003081F398300FF3097
:10005000A00083161F149F141F159F1107309C00CA
:10006000831300308312A0008316870101308312AE
:10007000870004200030A0008316870183128701C7
:080080000420831631286300FF
:02400E003A3F37
:00000001FF
;PIC16F877A
;CRC=0BB8  CREATED="04-Aug-20 09:47"
