:1000000000308A00D42800000A108A100A118207E2
:1000100003349F3425340D349934493441341F342A
:10002000013409343008F8012F0203181A282F0868
:10003000F7002628F7010830B100AF0DF70D3008A2
:1000400077020318F700F80DB10B1D2808003030B7
:1000500084008313000803193A280230F800F701DE
:10006000F70B3028F80B2F289730F700F70B3628BE
:10007000800B2D280800831688118312881183169F
:1000800008118312081183168810831288108316B2
:1000900008108312081421080420AF00831686017B
:1000A00083122F0886000330B000272083168810A3
:1000B0008312881483160811831208158316881179
:1000C000831288158316881183128811831688106D
:1000D00083128810831608108312081083160811E3
:1000E0008312081520080420AF00831686018312AE
:1000F0002F0886000330B0002720831608108312D3
:10010000081483168810831288148316081183122A
:10011000081583160810831208108316881083129E
:100120008810831608118312081183168811831210
:10013000881583168601E030831286000330B000F4
:1001400027208316081183120815831608108312BE
:1001500008148316881083128814831608108312DB
:100160000810831608118312081183168811831250
:1001700088118316881083128814831686016330D1
:10018000831286000330B0002720831608118312E3
:100190000815831608108312081483168811831219
:1001A00088158A110A12292903081F398300FF3094
:1001B000AC0083161F149F141F159F1107309C005D
:1001C00083138312A3010130A4000330A50007307C
:1001D000A6000F30A7001F30A8003F30A9007F30D5
:1001E000AA00FF30AB00C0308B0483160C1485309E
:1001F00083129000AD012D08313C031C2B292D08E2
:10020000AF000A30B00012207708A0002D08AF0020
:100210000A30B00012207808A100AE012E08083C78
:10022000031C212923302E07840083130008AF000C
:100230000030AC008316870183122F088700AE0AB6
:100240000E290230AF009630B0002720AF0B2329D3
:080250003B28AD0AFB28630006
:02400E003A3F37
:00000001FF
;PIC16F877A
;CRC=98F3  CREATED="11-Aug-20 07:57"
