:1000000000308A002728000095309000A1012108C7
:10001000093C031C2628C03090000F08FA000E0887
:10002000F7000F087A02031D0D287708A2007A084E
:10003000A3002308623C03182428FF3A031D0D285F
:100040002208C03C031C0D28A10A07280800030849
:100050001F398300FF30A00083161F149F141F1543
:100060009F1107309C00831300308312A000831679
:10007000870101308312870004200030A00083161E
:0E008000870183128701042083163428630051
:02400E003A3F37
:00000001FF
;PIC16F877A
;CRC=C5BD  CREATED="04-Aug-20 09:48"
