:1000000000308A008D280000FF00030E8301A1004C
:100010000A08A0008A010408A2007708A300780853
:10002000A4007908A5007A08A600831383128C30F7
:100030008400001C1D280C182E2822088400230888
:10004000F7002408F8002508F9002608FA0020081F
:100050008A00210E8300FF0E7F0E09008A110A120A
:1000600045282730840083130008031944280230F0
:10007000F800F701F70B3A28F80B39289730F7000A
:10008000F70B4028800B3728080083168801FF30C3
:1000900083128800831686019130831286008316AE
:1000A0008811831288110330A7003120831688013C
:1000B000FF30831288008316860161308312860028
:1000C00083160811831208110330A700312083160C
:1000D0008801FF308312880083168601E330831283
:1000E000860083168810831288100330A700312001
:1000F00083168801FF308312880083168601313011
:100100008312860083160810831208100330A7009C
:1001100031200C108A110A121D2803081F39830090
:1001200083161F149F141F159F1107309C00831303
:10013000C03083128B0483160C1485308312900018
:04014000A028630090
:02400E003A3F37
:00000001FF
;PIC16F877A
;CRC=D7C7  CREATED="04-Aug-20 08:51"
